:100000000C942A000C9434000C9434000C943400AA
:100010000C9434000C9434000C9434000C94340090
:100020000C9434000C9434000C9434000C94340080
:100030000C9434000C9434000C9434000C94340070
:100040000C9434000C9434000C9434000C94340060
:100050000C94340011241FBECFE5D8E0DEBFCDBF25
:100060000E94C3000C947D030C940000EF920F9348
:1000700021E040E060E480E00E94C800E12C00E064
:1000800020E040E066E080E895E20E941B0140E04D
:1000900062E086E390E00E94E00041E062E086E3F7
:1000A00090E00E94E00042E062E086E390E00E947F
:1000B000E00042E062E086E390E00E94E00060E061
:1000C00083E390E00E9412010F91EF90089586B3B0
:1000D00080958F700E94700180E00E94D200BC0168
:1000E00080E090E00E94820220E030E04CE453E4A3
:1000F0000E94E1010E94530281E4860F0E94700178
:1001000081E00E94D200BC0180E090E00E94820267
:1001100020E030E04CE453E40E94E1010E945302ED
:1001200087E4860F0E94700182E00E94D200BC0129
:1001300080E090E00E94820220E030E04CE453E452
:100140000E94E1010E9453028DE4860F0E9470011B
:1001500083E00E94D200BC0180E090E00E94820215
:1001600020E030E04CE453E40E94E1010E9453029D
:1001700083E5860F0E94700187E893E10197F1F70C
:1001800000C0000008950E9436000E946700FDCF65
:1001900067B9440F440F440F242B26B98111359AB7
:1001A000379A089597B1907E97B997B1892B87B9FF
:1001B000369A349BFECF84B195B1349A93700895EA
:1001C000FC01613079F018F06230E1F0089521818E
:1001D00081E090E002C0880F991F4A95E2F7822BD8
:1001E00081830895218181E090E002C0880F991FEA
:1001F0004A95E2F78095922F9823918392818923E3
:1002000082830895218181E090E002C0880F991FC8
:100210004A95E2F7982F9095922391839281892BAA
:1002200082830895611104C02FEFFC01218308959A
:10023000FC0111820895EF920F931F93CF93DF93E8
:10024000C62FD42F122F4423D1F0BC0180E090E0C0
:100250000E9482029B01AC010E9475019B01AC01CE
:1002600060E074E284E799E40E94E10120E030E07C
:1002700040E85FE30E9474010E9453021BC0BC016E
:1002800080E090E00E94820220E030E040E051E413
:100290000E9410039B01AC0160E074E284E799E4E2
:1002A0000E94E10120E030E040E85FE30E94740139
:1002B0000E94530269B9737070BD82E08BB91861F6
:1002C0001AB900680C2BCE2DCC0FCC0FCC0FC02B45
:1002D000CD2BC0BDDF91CF911F910F91EF9008956D
:1002E0005D9BFECF8CB908955058BB27AA270E946A
:1002F0008C010C94D6020E94C80238F00E94CF02F2
:1003000020F039F49F3F19F426F40C94C5020EF442
:10031000E095E7FB0C94BF02E92F0E94E70258F337
:10032000BA17620773078407950720F079F4A6F5DA
:100330000C9409030EF4E0950B2EBA2FA02D0B019F
:10034000B90190010C01CA01A0011124FF27591B1A
:1003500099F0593F50F4503E68F11A16F040A22F20
:10036000232F342F4427585FF3CF46953795279591
:10037000A795F0405395C9F77EF41F16BA0B620B90
:10038000730B840BBAF09150A1F0FF0FBB1F661FD7
:10039000771F881FC2F70EC0BA0F621F731F841F1A
:1003A00048F4879577956795B795F7959E3F08F040
:1003B000B0CF9395880F08F09927EE0F9795879502
:1003C00008950E94F5010C94D6020E94CF0258F0C5
:1003D0000E94C80240F029F45F3F29F00C94BF024C
:1003E00051110C940A030C94C5020E94E70268F3B1
:1003F0009923B1F3552391F3951B550BBB27AA27DE
:1004000062177307840738F09F5F5F4F220F331F17
:10041000441FAA1FA9F335D00E2E3AF0E0E832D0DF
:1004200091505040E695001CCAF72BD0FE2F29D0E2
:10043000660F771F881FBB1F261737074807AB07B4
:10044000B0E809F0BB0B802DBF01FF2793585F4F29
:100450003AF09E3F510578F00C94BF020C940A03C9
:100460005F3FE4F3983ED4F3869577956795B7950B
:10047000F7959F5FC9F7880F911D9695879597F916
:100480000895E1E0660F771F881FBB1F621773078F
:100490008407BA0720F0621B730B840BBA0BEE1FA4
:1004A00088F7E09508950E94EF0288F09F5798F032
:1004B000B92F9927B751B0F0E1F0660F771F881F69
:1004C000991F1AF0BA95C9F714C0B13091F00E9483
:1004D0000903B1E008950C940903672F782F88274A
:1004E000B85F39F0B93FCCF3869577956795B395AA
:1004F000D9F73EF490958095709561957F4F8F4F19
:100500009F4F0895E89409C097FB3EF4909580951D
:10051000709561957F4F8F4F9F4F9923A9F0F92FC9
:1005200096E9BB279395F695879577956795B79547
:10053000F111F8CFFAF4BB0F11F460FF1BC06F5F2D
:100540007F4F8F4F9F4F16C0882311F096E911C03F
:10055000772321F09EE8872F762F05C0662371F060
:1005600096E8862F70E060E02AF09A95660F771F74
:10057000881FDAF7880F9695879597F9089597F968
:100580009F6780E870E060E008959FEF80EC089539
:1005900000240A9416161706180609060895002462
:1005A0000A9412161306140605060895092E0394DC
:1005B000000C11F4882352F0BB0F40F4BF2B11F450
:1005C00060FF04C06F5F7F4F8F4F9F4F089557FDAF
:1005D0009058440F551F59F05F3F71F04795880FB1
:1005E00097FB991F61F09F3F79F087950895121648
:1005F00013061406551FF2CF4695F1DF08C01616F4
:1006000017061806991FF1CF8695710561050894A4
:100610000895E894BB2766277727CB0197F90895BB
:100620000E9423030C94D6020E94C80238F00E9454
:10063000CF0220F0952311F00C94BF020C94C50258
:1006400011240C940A030E94E70270F3959FC1F3F2
:10065000950F50E0551F629FF001729FBB27F00D70
:10066000B11D639FAA27F00DB11DAA1F649F6627C5
:10067000B00DA11D661F829F2227B00DA11D621F14
:10068000739FB00DA11D621F839FA00D611D221FCE
:10069000749F3327A00D611D231F849F600D211DB2
:1006A000822F762F6A2F11249F5750409AF0F1F035
:1006B00088234AF0EE0FFF1FBB1F661F771F881F9E
:1006C00091505040A9F79E3F510580F00C94BF0215
:1006D0000C940A035F3FE4F3983ED4F38695779534
:1006E0006795B795F795E7959F5FC1F7FE2B880F44
:0E06F000911D9695879597F90895F894FFCF80
:00000001FF
