S01A0000524F565F436F6E74726F6C6C65725F4D43552E737265634C
S11300000C942A000C9434000C9434000C943400A6
S11300100C9434000C9434000C9434000C9434008C
S11300200C9434000C9434000C9434000C9434007C
S11300300C9434000C9434000C9434000C9434006C
S11300400C9434000C9434000C9434000C9434005C
S11300500C94340011241FBECFE5D8E0DEBFCDBF21
S11300600E9492000C94AB0C0C9400000F9300E0DF
S113007021E044E060E080E00E94480244E060E067
S113008080E390E00E94EF0145E060E080E390E0CF
S11300900E94EF0123E040E060E280E40E947902E4
S11300A023E040E050E260E070E880E091E00E94EC
S11300B0A50224E040E060E280E40E94760A60E069
S11300C089E390E00E943F020F910895CF93DF935C
S11300D0CDB7DEB729970FB6F894DEBF0FBECDBFFC
S11300E0CE0101960E9473026981CE0102960E949C
S11300F098016B818A810E9497006D818C810E9496
S1130100CA006F818E810E941601698588850E94CC
S1130110650129960FB6F894DEBF0FBECDBFDF91FF
S1130120CF9108950E9436000E946600FDCFCF93C0
S1130130C62F882319F0813099F02AC040E060E08E
S113014089E390E00E94210240E061E089E390E0CD
S11301500E94210260E070E0CB010E94880218C076
S113016041E060E089E390E00E94210240E061E028
S113017089E390E00E94210284E1C89FB001112428
S1130180072E000C880B990B0E94B20B0E94880268
S1130190CF910895EF92FF920F931F93CF93C62FA1
S11301A0882319F08130D9F03BC040E062E089E354
S11301B090E00E94210240E063E089E390E00E9425
S11301C02102E12C6894FF24F7F800E011E020E01C
S11301D030E0A901CA01B9010E94B00221C041E086
S11301E062E089E390E00E94210240E063E089E359
S11301F090E00E94210284E1C89FB0011124072EDF
S1130200000C880B990B0E94B20BE12C6894FF241C
S1130210F7F800E011E020E030E0A9010E94B0020C
S1130220CF911F910F91FF90EF900895EF92FF925D
S11302300F931F93CF93C62F882319F08130E9F0D1
S11302403EC040E064E089E390E00E94210240E087
S113025065E089E390E00E942102E12C6894FF2488
S1130260F5F800E011E020E030E04FE753E460E00F
S113027070E0CB010E94930622C041E064E089E370
S113028090E00E94210240E065E089E390E00E9452
S1130290210284E1C89FB0011124072E000C880BB1
S11302A0990B0E94B20BE12C6894FF24F5F800E04E
S11302B011E020E030E04FE753E40E949306CF9131
S11302C01F910F91FF90EF900895CF93C62F88232D
S11302D019F0813099F02AC040E066E089E390E0AB
S11302E00E94210240E067E089E390E00E9421023D
S11302F060E070E0CB010E94850A18C041E066E02E
S113030089E390E00E94210240E067E089E390E005
S11303100E94210284E1C89FB0011124072E000C21
S1130320880B990B0E94B20B0E94850ACF91089505
S1130330FC01673729F481E0808382E081832AC04D
S1130340613629F481E0828382E0838323C06436AA
S113035029F481E0848382E085831CC0633729F417
S113036081E0868382E0878315C0603249F410827D
S113037011821282138214821582168217820AC095
S11303808FEB860F863008F4818389EB860F8630E5
S113039008F4838383EB860F863008F485838DEA23
S11303A0860F873008F487836930C0F460FF03C088
S11303B081E0808301C0108261FF03C081E08283F9
S11303C001C0128262FF03C081E0848301C01482F1
S11303D063FF03C081E08683089516820895FC01BB
S11303E0613079F018F06230E1F00895218181E004
S11303F090E002C0880F991F4A95E2F7822B81830F
S11304000895218181E090E002C0880F991F4A95E8
S1130410E2F78095922F9823918392818923828396
S11304200895218181E090E002C0880F991F4A95C8
S1130430E2F7982F9095922391839281892B82835E
S11304400895442319F0413071F00895FC0142816C
S113045021E030E002C0220F331F6A95E2F72095B5
S1130460242322830895FC01428121E030E002C06C
S1130470220F331F6A95E2F7242B2283089561111A
S113048004C02FEFFC0121830895FC01118208951B
S1130490FF920F931F93CF93DF93D82FC62F142F60
S11304A0F22E603169F445E060E086E390E00E945A
S11304B0EF0147E060E086E390E00E94EF0106C0B0
S11304C046E060E086E390E00E94EF018F2D8064B7
S11304D0182BD12BCD2BCDB90EB9DF91CF911F9114
S11304E00F91FF900895779BFECF2FB1FC012083DD
S11304F00895262B822B83BF89B7482B49BF6623D7
S113050031F043E060E086E390E00E94EF0108955B
S113051020E030E048EC52E40E940F0B20E030E091
S11305204FE753E40E943E0C0E94810B70E080E090
S113053090E00E94B20B20E030E040E05FE30E94D4
S1130540A30A0E94810B6CBF0895822B8064482B00
S1130550592B642B752B7FBD6EBD89B789BF089558
S11305604F925F926F927F928F929F92AF92BF92BF
S1130570EF92FF920F931F932B013C0149015A0103
S1130580083082E0180709F46CC1C0F4083081E037
S1130590180709F419C140F40031110509F4FBC12D
S11305A00115114051F1B2C3003181E0180709F47B
S11305B03BC20115124009F46DC0A8C3011583E0C4
S11305C0180709F4B4C050F4003182E0180709F4A4
S11305D074C20831124009F402C398C3003183E0A5
S11305E0180709F4B3C2083183E0180709F440C3BB
S11305F00830134009F08AC381C1E11480E8F80689
S113060029F0E11480ECF80601F180C320E030E029
S113061048EC52E4C301B2010E940F0B20E030E029
S11306204FE753E40E943E0C0E94810B80E090E06F
S11306300E94B00B20E030E040E05FE30E94A30A98
S11306400E94810B7BBD6ABD61C3A301920160E07E
S113065070E088EC92E40E94A20A20E030E048ECCA
S113066052E40E940F0B20E030E04FE753E40E9475
S11306703E0C0E94810B80E090E00E94B00B20E0D1
S113068030E040E05FE30E94A30A0E94810B7BBD3F
S11306906ABD3CC3E11480E8F80629F0E11480EC5B
S11306A0F80601F133C320E030E048EC52E4C30122
S11306B0B2010E940F0B20E030E84FEF53E40E9498
S11306C03E0C0E94810B80E090E00E94B00B20E081
S11306D030E040E05FE30E94A30A0E94810B7BBDEF
S11306E06ABD14C3A301920160E070E088EC92E457
S11306F00E94A20A20E030E048EC52E40E940F0B72
S113070020E030E84FEF53E40E943E0C0E94810B3E
S113071080E090E00E94B00B20E030E040E05FE336
S11307200E94A30A0E94810B7BBD6ABDEFC2E11443
S113073080E8F80629F0E11480ECF80601F1E6C23D
S113074020E030E048EC52E4C301B2010E940F0BF8
S113075020E030EC4FE754E40E943E0C0E94810BF1
S113076080E090E00E94B00B20E030E040E05FE3E6
S11307700E94A30A0E94810B7BBD6ABDC7C2A3016C
S1130780920160E070E088EC92E40E94A20A20E00A
S113079030E048EC52E40E940F0B20E030EC4FE7CD
S11307A054E40E943E0C0E94810B80E090E00E9481
S11307B0B00B20E030E040E05FE30E94A30A0E9417
S11307C0810B7BBD6ABDA2C2E11480E8F80629F062
S11307D0E11480ECF80601F199C220E030E048EC25
S11307E052E4C301B2010E940F0B20E030E04FE756
S11307F053E40E943E0C0E94810B80E090E00E9432
S1130800B00B20E030E040E05FE30E94A30A0E94C6
S1130810810B7BBD6ABD7AC2A301920160E070E0E6
S113082088EC92E40E94A20A20E030E048EC52E412
S11308300E940F0B20E030E04FE753E40E943E0C8F
S11308400E94810B80E090E00E94B00B20E030E039
S113085040E05FE30E94A30A0E94810B7BBD6ABD56
S113086055C2E11480E8F80629F0E11480ECF8069A
S113087001F14CC220E030E048EC52E4C301B20183
S11308800E940F0B20E030E84FEF53E40E943E0C2F
S11308900E94810B80E090E00E94B00B20E030E0E9
S11308A040E05FE30E94A30A0E94810B7BBD6ABD06
S11308B02DC2A301920160E070E088EC92E40E94F2
S11308C0A20A20E030E048EC52E40E940F0B20E042
S11308D030E84FEF53E40E943E0C0E94810B80E00D
S11308E090E00E94B00B20E030E040E05FE30E9423
S11308F0A30A0E94810B7BBD6ABD08C2E11480E893
S1130900F80629F0E11480ECF80601F1FFC120E0BB
S113091030E048EC52E4C301B2010E940F0B20E026
S113092030EC4FE754E40E943E0C0E94810B80E0BF
S113093090E00E94B00B20E030E040E05FE30E94D2
S1130940A30A0E94810B7BBD6ABDE0C1A301920191
S113095060E070E088EC92E40E94A20A20E030E0BB
S113096048EC52E40E940F0B20E030EC4FE754E4D3
S11309700E943E0C0E94810B80E090E00E94B00B2C
S113098020E030E040E05FE30E94A30A0E94810B74
S11309907BBD6ABDBBC1CA01B9010E94810B77BD91
S11309A066BDE11480E8F80629F0E11480ECF8064D
S11309B0C1F0ACC120E030E048EC52E4C301B20124
S11309C00E940F0BA50194010E943E0C20E030E030
S11309D040E05FE30E94A30A0E94810B7BBD6ABDD5
S11309E095C1A301920160E070E088EC92E40E945A
S11309F0A20A20E030E048EC52E40E940F0BA5016B
S1130A0094010E943E0C0E94810B80E090E00E94C1
S1130A10B00B20E030E040E05FE30E94A30A0E94B4
S1130A20810B7BBD6ABD72C1CA01B9010E94810BF1
S1130A307BBD6ABDE11480E8F80629F0E11480EC7E
S1130A40F806C1F063C120E030E048EC52E4C30191
S1130A50B2010E940F0BA50194010E943E0C20E0FC
S1130A6030E040E05FE30E94A30A0E94810B7BBD5B
S1130A706ABD4CC1A301920160E070E088EC92E48D
S1130A800E94A20A20E030E048EC52E40E940F0BDE
S1130A90A50194010E943E0C0E94810B80E090E02D
S1130AA00E94B00B20E030E040E05FE30E94A30A24
S1130AB00E94810B7BBD6ABD29C1CA01B9010E9494
S1130AC0810B77BD66BDE11480E8F80629F0E114D6
S1130AD080ECF806C1F01AC120E030E048EC52E4A2
S1130AE0C301B2010E940F0BA50194010E943E0CA8
S1130AF020E030E040E05FE30E94A30A0E94810B03
S1130B007BBD6ABD03C1A301920160E070E088EC83
S1130B1092E40E94A20A20E030E048EC52E40E94F1
S1130B200F0BA50194010E943E0C0E94810B80E0F2
S1130B3090E00E94B00B20E030E040E05FE30E94D0
S1130B40A30A0E94810B7BBD6ABDE0C0CA01B90142
S1130B500E94810B7BBD6ABDE11480E8F80629F090
S1130B60E11480ECF806C1F0D1C020E030E048EC9C
S1130B7052E4C301B2010E940F0BA50194010E942B
S1130B803E0C20E030E040E05FE30E94A30A0E94B4
S1130B90810B7BBD6ABDBAC0A301920160E070E025
S1130BA088EC92E40E94A20A20E030E048EC52E48F
S1130BB00E940F0BA50194010E943E0C0E94810B20
S1130BC080E090E00E94B00B20E030E040E05FE382
S1130BD00E94A30A0E94810B7BBD6ABD97C0CA0113
S1130BE0B9010E94810B77BD66BDE11480E8F80667
S1130BF029F0E11480ECF806C1F088C020E030E070
S1130C0048EC52E4C301B2010E940F0BA501940108
S1130C100E943E0C20E030E040E05FE30E94A30A23
S1130C200E94810B7BBD6ABD71C0A301920160E08B
S1130C3070E088EC92E40E94A20A20E030E048ECE4
S1130C4052E40E940F0BA50194010E943E0C0E94E5
S1130C50810B80E090E00E94B00B20E030E040E0A7
S1130C605FE30E94A30A0E94810B7BBD6ABD4EC054
S1130C70CA01B9010E94810B7BBD6ABDE11480E801
S1130C80F80629F0E11480ECF806F1F03FC020E00A
S1130C9030E048EC52E4C301B2010E940F0BA501FD
S1130CA094010E943E0C0E94810B80E090E00E941F
S1130CB0B00B20E030E040E05FE30E94A30A0E9412
S1130CC0810B7BBD6ABD22C0A301920160E070E08C
S1130CD088EC92E40E94A20A20E030E048EC52E45E
S1130CE00E940F0BA50194010E943E0C0E94810BEF
S1130CF080E090E00E94B00B20E030E040E05FE351
S1130D000E94A30A0E94810B7BBD6ABD1F910F91B3
S1130D10FF90EF90BF90AF909F908F907F906F90D7
S1130D205F904F9008954F925F926F927F928F924F
S1130D309F92AF92BF92EF92FF920F931F932B015A
S1130D403C0149015A01083082E0180709F46CC1DA
S1130D50C0F4083081E0180709F419C140F40031E7
S1130D60110509F4FBC10115114051F1B2C3003161
S1130D7081E0180709F43BC20115124009F46DC063
S1130D80A8C3011583E0180709F4B4C050F4003176
S1130D9082E0180709F474C20831124009F402C34E
S1130DA098C3003183E0180709F4B3C2083183E023
S1130DB0180709F440C30830134009F08AC381C1FD
S1130DC0E11480E2F80629F0E11480E3F80601F169
S1130DD080C320E030E048EC52E4C301B2010E9439
S1130DE00F0B20E030E04FE753E40E943E0C0E94DA
S1130DF0810B80E090E00E94B00B20E030E040E006
S1130E005FE30E94A30A0E94810B79BD68BD61C3A0
S1130E10A301920160E070E088EC92E40E94A20ACF
S1130E2020E030E048EC52E40E940F0B20E030E078
S1130E304FE753E40E943E0C0E94810B80E090E057
S1130E400E94B00B20E030E040E05FE30E94A30A80
S1130E500E94810B79BD68BD3CC3E11480E2F806B1
S1130E6029F0E11480E3F80601F133C320E030E017
S1130E7048EC52E4C301B2010E940F0B20E030E8B9
S1130E804FEF53E40E943E0C0E94810B80E090E0FF
S1130E900E94B00B20E030E040E05FE30E94A30A30
S1130EA00E94810B79BD68BD14C3A301920160E067
S1130EB070E088EC92E40E94A20A20E030E048EC62
S1130EC052E40E940F0B20E030E84FEF53E40E94FD
S1130ED03E0C0E94810B80E090E00E94B00B20E069
S1130EE030E040E05FE30E94A30A0E94810B79BDD9
S1130EF068BDEFC2E11480E2F80629F0E11480E352
S1130F00F80601F1E6C220E030E048EC52E4C30107
S1130F10B2010E940F0B20E030EC4FE754E40E9432
S1130F203E0C0E94810B80E090E00E94B00B20E018
S1130F3030E040E05FE30E94A30A0E94810B79BD88
S1130F4068BDC7C2A301920160E070E088EC92E43E
S1130F500E94A20A20E030E048EC52E40E940F0B09
S1130F6020E030EC4FE754E40E943E0C0E94810BD9
S1130F7080E090E00E94B00B20E030E040E05FE3CE
S1130F800E94A30A0E94810B79BD68BDA2C2E1142C
S1130F9080E2F80629F0E11480E3F80601F199C231
S1130FA020E030E048EC52E4C301B2010E940F0B90
S1130FB020E030E04FE753E40E943E0C0E94810B96
S1130FC080E090E00E94B00B20E030E040E05FE37E
S1130FD00E94A30A0E94810B79BD68BD7AC2A30155
S1130FE0920160E070E088EC92E40E94A20A20E0A2
S1130FF030E048EC52E40E940F0B20E030E04FE771
S113100053E40E943E0C0E94810B80E090E00E9419
S1131010B00B20E030E040E05FE30E94A30A0E94AE
S1131020810B79BD68BD55C2E11480E2F80629F050
S1131030E11480E3F80601F14CC220E030E048EC12
S113104052E4C301B2010E940F0B20E030E84FEFDD
S113105053E40E943E0C0E94810B80E090E00E94C9
S1131060B00B20E030E040E05FE30E94A30A0E945E
S1131070810B79BD68BD2DC2A301920160E070E0CF
S113108088EC92E40E94A20A20E030E048EC52E4AA
S11310900E940F0B20E030E84FEF53E40E943E0C17
S11310A00E94810B80E090E00E94B00B20E030E0D1
S11310B040E05FE30E94A30A0E94810B79BD68BDF2
S11310C008C2E11480E2F80629F0E11480E3F8068E
S11310D001F1FFC120E030E048EC52E4C301B20169
S11310E00E940F0B20E030EC4FE754E40E943E0CCA
S11310F00E94810B80E090E00E94B00B20E030E081
S113110040E05FE30E94A30A0E94810B79BD68BDA1
S1131110E0C1A301920160E070E088EC92E40E94D7
S1131120A20A20E030E048EC52E40E940F0B20E0D9
S113113030EC4FE754E40E943E0C0E94810B80E0A7
S113114090E00E94B00B20E030E040E05FE30E94BA
S1131150A30A0E94810B79BD68BDBBC1CA01B90154
S11311600E94810B77BD66BDE11480E2F80629F088
S1131170E11480E3F806C1F0ACC120E030E048ECB3
S113118052E4C301B2010E940F0BA50194010E9415
S11311903E0C20E030E040E05FE30E94A30A0E949E
S11311A0810B79BD68BD95C1A301920160E070E037
S11311B088EC92E40E94A20A20E030E048EC52E479
S11311C00E940F0BA50194010E943E0C0E94810B0A
S11311D080E090E00E94B00B20E030E040E05FE36C
S11311E00E94A30A0E94810B79BD68BD72C1CA0125
S11311F0B9010E94810B7BBD6ABDE11480E2F8064F
S113120029F0E11480E3F806C1F063C120E030E086
S113121048EC52E4C301B2010E940F0BA5019401F2
S11312200E943E0C20E030E040E05FE30E94A30A0D
S11312300E94810B79BD68BD4CC1A301920160E09D
S113124070E088EC92E40E94A20A20E030E048ECCE
S113125052E40E940F0BA50194010E943E0C0E94CF
S1131260810B80E090E00E94B00B20E030E040E091
S11312705FE30E94A30A0E94810B79BD68BD29C166
S1131280CA01B9010E94810B77BD66BDE11480E2F9
S1131290F80629F0E11480E3F806C1F01AC120E051
S11312A030E048EC52E4C301B2010E940F0BA501E7
S11312B094010E943E0C20E030E040E05FE30E9495
S11312C0A30A0E94810B79BD68BD03C1A3019201E9
S11312D060E070E088EC92E40E94A20A20E030E032
S11312E048EC52E40E940F0BA50194010E943E0CAD
S11312F00E94810B80E090E00E94B00B20E030E07F
S113130040E05FE30E94A30A0E94810B79BD68BD9F
S1131310E0C0CA01B9010E94810B7BBD6ABDE11422
S113132080E2F80629F0E11480E3F806C1F0D1C0A8
S113133020E030E048EC52E4C301B2010E940F0BFC
S1131340A50194010E943E0C20E030E040E05FE300
S11313500E94A30A0E94810B79BD68BDBAC0A30193
S1131360920160E070E088EC92E40E94A20A20E01E
S113137030E048EC52E40E940F0BA50194010E9456
S11313803E0C0E94810B80E090E00E94B00B20E0B4
S113139030E040E05FE30E94A30A0E94810B79BD24
S11313A068BD97C0CA01B9010E94810B77BD66BDB3
S11313B0E11480E2F80629F0E11480E3F806C1F0B4
S11313C088C020E030E048EC52E4C301B2010E943E
S11313D00F0BA50194010E943E0C20E030E040E098
S11313E05FE30E94A30A0E94810B79BD68BD71C0AE
S11313F0A301920160E070E088EC92E40E94A20AEA
S113140020E030E048EC52E40E940F0BA501940167
S11314100E943E0C0E94810B80E090E00E94B00B81
S113142020E030E040E05FE30E94A30A0E94810BC9
S113143079BD68BD4EC0CA01B9010E94810B7BBD54
S11314406ABDE11480E2F80629F0E11480E3F806AD
S1131450F1F03FC020E030E048EC52E4C301B201B7
S11314600E940F0BA50194010E943E0C0E94810B67
S113147080E090E00E94B00B20E030E040E05FE3C9
S11314800E94A30A0E94810B79BD68BD22C0A301FA
S1131490920160E070E088EC92E40E94A20A20E0ED
S11314A030E048EC52E40E940F0BA50194010E9425
S11314B03E0C0E94810B80E090E00E94B00B20E083
S11314C030E040E05FE30E94A30A0E94810B79BDF3
S11314D068BD1F910F91FF90EF90BF90AF909F90C8
S11314E08F907F906F905F904F900895262B822B62
S11314F085BD89B7482B49BF662331F047E060E0DA
S113150080E390E00E94EF01089520E030E048EC91
S113151052E40E940F0B20E030E04FE753E40E94B6
S11315203E0C0E94810B70E080E090E00E94B20BC0
S113153020E030E040E05FE30E94A30A0E94810BB8
S113154063BD08955058BB27AA270E94BA0A0C9479
S1131550040C0E94F60B38F00E94FD0B20F039F4C5
S11315609F3F19F426F40C94F30B0EF4E095E7FB7B
S11315700C94ED0BE92F0E94150C58F3BA1762076F
S113158073078407950720F079F4A6F50C94370CBB
S11315900EF4E0950B2EBA2FA02D0B01B90190018A
S11315A00C01CA01A0011124FF27591B99F0593FCE
S11315B050F4503E68F11A16F040A22F232F342F16
S11315C04427585FF3CF469537952795A795F04064
S11315D05395C9F77EF41F16BA0B620B730B840B79
S11315E0BAF09150A1F0FF0FBB1F661F771F881F31
S11315F0C2F70EC0BA0F621F731F841F48F4879589
S113160077956795B795F7959E3F08F0B0CF93957A
S1131610880F08F09927EE0F9795879508950E94F3
S1131620230B0C94040C0E94FD0B58F00E94F60B43
S113163040F029F45F3F29F00C94ED0B51110C9408
S1131640380C0C94F30B0E94150C68F39923B1F336
S1131650552391F3951B550BBB27AA2762177307D4
S1131660840738F09F5F5F4F220F331F441FAA1F68
S1131670A9F335D00E2E3AF0E0E832D09150504024
S1131680E695001CCAF72BD0FE2F29D0660F771FD2
S1131690881FBB1F261737074807AB07B0E809F0B8
S11316A0BB0B802DBF01FF2793585F4F3AF09E3F3D
S11316B0510578F00C94ED0B0C94380C5F3FE4F377
S11316C0983ED4F3869577956795B795F7959F5F80
S11316D0C9F7880F911D9695879597F90895E1E0CC
S11316E0660F771F881FBB1F621773078407BA072B
S11316F020F0621B730B840BBA0BEE1F88F7E09586
S113170008950E941D0C88F09F5798F0B92F9927CF
S1131710B751B0F0E1F0660F771F881F991F1AF0D8
S1131720BA95C9F714C0B13091F00E94370CB1E0FA
S113173008950C94370C672F782F8827B85F39F0F9
S1131740B93FCCF3869577956795B395D9F73EF471
S113175090958095709561957F4F8F4F9F4F089519
S1131760E89409C097FB3EF4909580957095619537
S11317707F4F8F4F9F4F9923A9F0F92F96E9BB27ED
S11317809395F695879577956795B795F111F8CF69
S1131790FAF4BB0F11F460FF1BC06F5F7F4F8F4FD4
S11317A09F4F16C0882311F096E911C0772321F0CA
S11317B09EE8872F762F05C0662371F096E8862F62
S11317C070E060E02AF09A95660F771F881FDAF7B9
S11317D0880F9695879597F9089597F99F6780E8FC
S11317E070E060E008959FEF80EC089500240A946F
S11317F01616170618060906089500240A941216E8
S11318001306140605060895092E0394000C11F41A
S1131810882352F0BB0F40F4BF2B11F460FF04C0C7
S11318206F5F7F4F8F4F9F4F089557FD9058440F20
S1131830551F59F05F3F71F04795880F97FB991F2B
S113184061F09F3F79F087950895121613061406E8
S1131850551FF2CF4695F1DF08C016161706180675
S1131860991FF1CF86957105610508940895E89450
S1131870BB2766277727CB0197F908950E94510C5F
S11318800C94040C0E94F60B38F00E94FD0B20F01F
S1131890952311F00C94ED0B0C94F30B11240C9480
S11318A0380C0E94150C70F3959FC1F3950F50E00E
S11318B0551F629FF001729FBB27F00DB11D639FFE
S11318C0AA27F00DB11DAA1F649F6627B00DA11DA4
S11318D0661F829F2227B00DA11D621F739FB00D4A
S11318E0A11D621F839FA00D611D221F749F3327BA
S11318F0A00D611D231F849F600D211D822F762F53
S11319006A2F11249F5750409AF0F1F088234AF02F
S1131910EE0FFF1FBB1F661F771F881F915050409B
S1131920A9F79E3F510580F00C94ED0B0C94380CF4
S11319305F3FE4F3983ED4F3869577956795B79522
S1131940F795E7959F5FC1F7FE2B880F911D96953C
S10D1950879597F90895F894FFCFE6
S9030000FC
