S0160000524F565F53454E534F525F4D43552E737265639A
S11300000C942A000C94B9030C94DE030C9447005E
S11300100C9447000C9447000C9447000C94470040
S11300200C9447000C9447000C9447000C94470030
S11300300C9447000C9447000C9447000C94470020
S11300400C9447000C9447000C9447000C94470010
S11300500C94470011241FBECFE5D8E0DEBFCDBF0E
S113006010E0A0E6B0E0E8EBFFE002C005900D92DE
S1130070A03EB107D9F721E0A0EEB0E001C01D9287
S1130080A13DB207E1F70E948B020C94DA070C94AD
S11300900000EF920F93CF93DF93EAEBF1E0C0E31C
S11300A0D0E0D183C08380E8838384E08483828327
S11300B0CF010E945E03E8ECF1E0D183C08380E4C9
S11300C0838381E08483C5E0C283CF010E945E0301
S11300D0E2EBF1E086E390E091838083C28300E069
S11300E020E040EA56E861E070E088E00E94750490
S11300F081EC91E00E942403E12C20E040E066E0E2
S113010080E895E20E943805DF91CF910F91EF903E
S11301100895CF93DF93EC018881882331F02196F1
S11301200E948D0589918111FBCFDF91CF910895B4
S1130130EF92FF920F931F93CF93DF93EC018B0108
S11301407A018A818F704AE066E071E090E00E9453
S1130150A50789818F704AE064E071E090E00E9415
S1130160A50788818F704AE062E071E090E00E9408
S1130170A5078A8182958F704AE060E071E090E083
S11301800E94A507898182958F704AE06EEF70E026
S113019090E00E94A507888182958F704AE06CEFF9
S11301A070E090E00E94A5078C818F704AE06AEFAE
S11301B070E090E00E94A5078D818F704AE068EF9F
S11301C070E090E00E94A5078E818F704AE066EF90
S11301D070E090E00E94A5078C8182958F704AE0C0
S11301E064EF70E090E00E94A5078D8182958F7086
S11301F04AE062EF70E090E00E94A5078E8182954C
S11302008F704AE060EF70E090E00E94A50787E0FD
S1130210E0E6F0E0D70101900D928A95E1F760E005
S113022071E0C7010E949A0766E071E0C7010E946D
S11302309A07F70101900020E9F73197CAE3D0E06B
S1130240D183C0836EEF70E0C7010E949A0764E017
S113025071E0C7010E949A07F70101900020E9F7B5
S11302603197D183C0836CEF70E0C7010E949A0775
S113027062E071E0C7010E949A0786E0E7E6F0E0D9
S1130280D80101900D928A95E1F764EF70E0C801FE
S11302900E949A076AEF70E0C8010E949A07F80169
S11302A001900020E9F73197CFE2D0E0D183C083F9
S11302B062EF70E0C8010E949A0768EF70E0C8011D
S11302C00E949A07F80101900020E9F73197D18341
S11302D0C08360EF70E0C8010E949A0766EF70E087
S11302E0C8010E949A07DF91CF911F910F91FF904F
S11302F0EF900895EF92FF920F931F93CF93DF93A4
S11303007C018B01EA01FC0183814AE06CEE70E020
S113031090E00E94A507F70185814AE068EE70E04D
S113032090E00E94A5078FE0EDE6F0E0D80101908F
S11303300D928A95E1F768EE70E0C8010E949A0771
S1130340F80101900020E9F7319780E293E491836A
S113035080838EE290E0938382838CE0ECE7F0E08C
S1130360DE0101900D928A95E1F76CEE70E0CE010A
S11303700E949A0709900020E9F7219780E295E20C
S1130380998388831A82DF91CF911F910F91FF90F7
S1130390EF900895EF92FF920F931F93CF93DF9303
S11303A07B018A01E9014AE064EE70E0FC01858189
S11303B096810E94A5074AE060EE70E0F70185810E
S11303C096810E94A50787E1E8E8F0E0D801019052
S11303D00D928A95E1F764EE70E0C8010E949A07D5
S11303E0D8010D900020E9F7119785E0EFE9F0E0DE
S11303F001900D928A95E1F785E1E4EAF0E0DE01EF
S113040001900D928A95E1F760EE70E0CE010E94B2
S11304109A07DE010D900020E9F7119785E0EFE9D6
S1130420F0E001900D928A95E1F7DF91CF911F9151
S11304300F91FF90EF90089540E851E068E971E072
S113044081EC91E00E94980044E451E062E671E09E
S113045082EB91E00E947A0128E031E046E251E02B
S113046068EC71E08AEB91E00E94CA0189EB90E0AC
S11304700E9489008DE00E948D0588E991E00E9428
S113048089008DE00E948D0580E891E00E9489003A
S11304908DE00E948D0582E691E00E9489008DE046
S11304A00E948D0584E491E00E9489008DE00E9401
S11304B08D0586E291E00E9489008DE00E948D0501
S11304C088E091E00E9489008DE00E948D0589EB0F
S11304D090E00E9489008DE00E948D05089582EBD2
S11304E091E00E94050381EC91E00E9432038AEBC3
S11304F091E00E94700388EC91E00E9470030E94D6
S11305001C022FEF83ED90E3215080409040E1F7EF
S113051000C0000008950E9449000E946F02FDCFB0
S1130520CF93DF93EC014A8160E0888199810E9436
S1130530250440E06A81888199810E9457042FEF45
S113054080EE90E0215080409040E1F700C0000030
S1130550DF91CF9108951F93CF93DF93FC01C08166
S1130560D1811281412F62E0CE010E94250421E055
S113057030E002C0220F331F1A95E2F7888190E021
S113058082239323892BD1F7888190E082239323BC
S1130590892BD1F3888190E082239323892BD1F78F
S11305A0DF91CF911F910895DC01ED91FC9111979A
S11305B061E070E012960C9002C0660F771F0A94F7
S11305C0E2F798E080E0208130E026233723232BD4
S11305D0D1F3BAEBBA95F1F700C0208130E02623BD
S11305E03723232B19F0880F816001C0880F4FEF48
S11305F05FEF208130E026233723232B19F041506D
S11306005109B9F79150F9F60895CF93DF93EC01AE
S11306100E949002CE010E94AB02CE010E94D4023D
S11306208B83CE010E94D4028C83CE010E94D4021B
S11306308D83CE010E94D4028E83CE010E94D40207
S11306408F83DF91CF9108950E94FB0480ED0E9477
S1130650220587E00E94220580E10E9422050E9473
S113066005050895CF93DF93EC010E94FB0480ED10
S11306700E94220580E00E9422050E9405050E9436
S1130680FB0481ED0E9422050E940C0588830E94D0
S11306900C0589830E940C058A830E940C058B83B8
S11306A00E940C058C830E940C058D830E94170503
S11306B08E830E940505DF91CF910895CF93DF9338
S11306C0EC014A8160E0888199810E9425046C8153
S11306D08B810E9403041E821D82DF91CF910895B5
S11306E0CF93DF93EC0122E040E050E060E070E063
S11306F080E090E00E942D058FB780688FBF41E0B5
S11307006A81888199810E94570485E38A95F1F76B
S1130710000040E06A81888199810E945704109208
S1130720B1011092B0018091B1018823E1F38FB738
S11307308F778FBF20E040E050E060E070E080E021
S113074090E00E942D056091CF017091D00180E06E
S113075090E00E949F0620E030E048EE52E40E94C0
S1130760FE050E94700670E07E836D83DF91CF9159
S113077008951F920F920FB60F9211248F939F9397
S11307808091B001811106C01DBC1CBC81E0809326
S1130790B0010DC08091B001813049F48CB59DB594
S11307A09093D0018093CF0181E08093B1019F9118
S11307B08F910F900FBE0F901F9018951F920F925C
S11307C00FB60F9211248F939F938091B0018111E2
S11307D006C01DBC1CBC81E08093B0010DC080919B
S11307E0B001813049F48CB59DB59093D0018093CC
S11307F0CF0181E08093B1019F918F910F900FBE43
S11308000F901F9018959FB79F779FBF803429F052
S1130810803851F08032C1F40EC085B7682B65BFB3
S11308208BB780648BBF0DC085B7682B65BF8BB752
S113083080688BBF06C084B7682B64BF8BB78062A7
S11308408BBF8FB780688FBF0895FC01613079F04A
S113085018F06230E1F00895218181E090E002C057
S1130860880F991F4A95E2F7822B8183089521818D
S113087081E090E002C0880F991F4A95E2F78095C5
S1130880922F9823918392818923828308952181D1
S113089081E090E002C0880F991F4A95E2F7982FF3
S11308A09095922391839281892B82830895442386
S11308B019F0413071F00895FC01428121E030E0EB
S11308C002C0220F331F6A95E2F720952423228366
S11308D00895FC01428121E030E002C0220F331F61
S11308E06A95E2F7242B228308950F93CF93DF9325
S11308F0D82FC22F013009F130F00230D1F103308A
S113090009F453C074C0CB01BA010E949F069B0135
S1130910AC010E9492059B01AC0160E074E284E7A3
S11309209BE40E94FE0520E030E040E051E40E9498
S113093091050E94700660B953C0CB01BA010E94B0
S11309409F0620E030E040E051E40E942D079B0127
S1130950AC0160E074E284E79BE40E94FE0520E0C1
S113096030E040E050E40E9491050E94700660B9B6
S113097037C0CB01BA010E949F0620E030E040E07E
S113098052E40E942D079B01AC0160E074E284E70D
S11309909BE40E94FE0520E030E040E05FE30E941B
S11309A091050E94700660B91BC0CB01BA010E9478
S11309B09F0620E030E040E053E40E942D079B01B5
S11309C0AC0160E074E284E79BE40E94FE0520E051
S11309D030E040E05EE30E9491050E94700660B939
S11309E0DD0FD2B981B1082B01B9C460C6BFDF9154
S11309F0CF910F91089586B7877086BF86B7806AB6
S1130A0086BF06B607FEFDCF089586B7877086BFFA
S1130A1086B7806986BF089586B7877086BF86B714
S1130A20806C86BF06B607FEFDCF83B1089586B7F6
S1130A30877086BF86B7806886BF06B607FEFDCF7F
S1130A4083B1089583B986B7877086BF86B78068F7
S1130A5086BF06B607FEFDCF0895822B8064482B1F
S1130A60592B642B752B7FBD6EBD89B789BF089543
S1130A70EF920F931F93CF93DF93C62FD42F122F90
S1130A804423D1F0BC0180E090E00E949F069B01CA
S1130A90AC010E9492059B01AC0160E074E284E722
S1130AA09BE40E94FE0520E030E040E85FE30E9402
S1130AB091050E9470061BC0BC0180E090E00E947A
S1130AC09F0620E030E040E051E40E942D079B01A6
S1130AD0AC0160E074E284E79BE40E94FE0520E040
S1130AE030E040E85FE30E9491050E94700669B916
S1130AF0737070BD82E08BB918611AB900680C2B51
S1130B00CE2DCC0FCC0FCC0FC02BCD2BC0BDDF9185
S1130B10CF911F910F91EF9008955D9BFECF8CB9FB
S1130B2008955058BB27AA270E94A9050C94F306E0
S1130B300E94E50638F00E94EC0620F039F49F3F4D
S1130B4019F426F40C94E2060EF4E095E7FB0C94F9
S1130B50DC06E92F0E94040758F3BA1762077307EB
S1130B608407950720F079F4A6F50C9426070EF473
S1130B70E0950B2EBA2FA02D0B01B90190010C01A9
S1130B80CA01A0011124FF27591B99F0593F50F4C1
S1130B90503E68F11A16F040A22F232F342F442719
S1130BA0585FF3CF469537952795A795F040539511
S1130BB0C9F77EF41F16BA0B620B730B840BBAF0E1
S1130BC09150A1F0FF0FBB1F661F771F881FC2F74C
S1130BD00EC0BA0F621F731F841F48F48795779560
S1130BE06795B795F7959E3F08F0B0CF9395880F1A
S1130BF008F09927EE0F9795879508950E9412069D
S1130C000C94F3060E94EC0658F00E94E50640F0AE
S1130C1029F45F3F29F00C94DC0651110C9427074A
S1130C200C94E2060E94040768F39923B1F3552358
S1130C3091F3951B550BBB27AA27621773078407EB
S1130C4038F09F5F5F4F220F331F441FAA1FA9F381
S1130C5035D00E2E3AF0E0E832D091505040E6956F
S1130C60001CCAF72BD0FE2F29D0660F771F881FD0
S1130C70BB1F261737074807AB07B0E809F0BB0BC3
S1130C80802DBF01FF2793585F4F3AF09E3F5105D7
S1130C9078F00C94DC060C9427075F3FE4F3983E4D
S1130CA0D4F3869577956795B795F7959F5FC9F7C0
S1130CB0880F911D9695879597F90895E1E0660F41
S1130CC0771F881FBB1F621773078407BA0720F0BA
S1130CD0621B730B840BBA0BEE1F88F7E095089523
S1130CE00E940C0788F09F5798F0B92F9927B751A5
S1130CF0B0F0E1F0660F771F881F991F1AF0BA95BC
S1130D00C9F714C0B13091F00E942607B1E00895EC
S1130D100C942607672F782F8827B85F39F0B93FDE
S1130D20CCF3869577956795B395D9F73EF490956E
S1130D308095709561957F4F8F4F9F4F0895E894EC
S1130D4009C097FB3EF490958095709561957F4F0F
S1130D508F4F9F4F9923A9F0F92F96E9BB279395BD
S1130D60F695879577956795B795F111F8CFFAF4CD
S1130D70BB0F11F460FF1BC06F5F7F4F8F4F9F4FFE
S1130D8016C0882311F096E911C0772321F09EE85C
S1130D90872F762F05C0662371F096E8862F70E0C2
S1130DA060E02AF09A95660F771F881FDAF7880F9C
S1130DB09695879597F9089597F99F6780E870E06D
S1130DC060E008959FEF80EC089500240A941616BD
S1130DD0170618060906089500240A941216130625
S1130DE0140605060895092E0394000C11F48823B3
S1130DF052F0BB0F40F4BF2B11F460FF04C06F5FCF
S1130E007F4F8F4F9F4F089557FD9058440F551FA4
S1130E1059F05F3F71F04795880F97FB991F61F078
S1130E209F3F79F087950895121613061406551FEF
S1130E30F2CF4695F1DF08C0161617061806991F5B
S1130E40F1CF86957105610508940895E894BB2750
S1130E5066277727CB0197F908950E9440070C94E1
S1130E60F3060E94E50638F00E94EC0620F0952374
S1130E7011F00C94DC060C94E20611240C94270760
S1130E800E94040770F3959FC1F3950F50E0551F1E
S1130E90629FF001729FBB27F00DB11D639FAA27CB
S1130EA0F00DB11DAA1F649F6627B00DA11D661F1A
S1130EB0829F2227B00DA11D621F739FB00DA11D3B
S1130EC0621F839FA00D611D221F749F3327A00DF5
S1130ED0611D231F849F600D211D822F762F6A2F91
S1130EE011249F5750409AF0F1F088234AF0EE0FF6
S1130EF0FF1FBB1F661F771F881F91505040A9F723
S1130F009E3F510580F00C94DC060C9427075F3F4C
S1130F10E4F3983ED4F3869577956795B795F7955E
S1130F20E7959F5FC1F7FE2B880F911D96958795D6
S1130F3097F90895FB01DC010D900020E9F7119762
S1130F4001900D920020E1F70895BB274A3031F457
S1130F50992322F4BDE2909581959F4F0C94B1079B
S1130F60BB27FB015527AA27880F991FAA1FA4177F
S1130F7010F0A41B83955051B9F7A05DAA3308F073
S1130F80A95DA193009779F7B111B1931192CB01A7
S1130F900C94CA07DC01FC01672F71917723E1F7F8
S1130FA0329704C07C916D9370836291AE17BF0732
S10B0FB0C8F30895F894FFCF83
S1130FB8436C6F634B3A00446174653A0054656D41
S1130FC87065726174757265203A200048756D65A4
S1130FD864697479203A2000486F72697A6F6E7474
S1130FE8616C2044697374616E6365203A20002043
S1130FF8636D2E00566572746963616C204469736D
S113100874616E6365203A20002A2A2A2A2A2A2A29
S11310182A2A2A2A2A2A2A2A2A2A2A2A2A2A2A2A24
S11310282A2A2A2A2A2A2A2A2A2A2A2A2A2A2A003E
S9030000FC
