S0160000524F565F4D41535445525F4D43552E73726563A8
S11300000C9441000C945E000C945E000C945E0011
S11300100C945E000C945E000C945E000C94390900
S11300200C945E000C945E000C945E000C945E00D4
S11300300C945E000C945E000C945E000C945E00C4
S11300400C945E000C945E000C945E000C945E00B4
S11300500C945E00FE04210501052105040521051B
S1130060070521050A0521050D05210510052105B2
S11300701305210516052105190521051C05210572
S11300801F0511241FBECFE5D8E0DEBFCDBF10E0B1
S1130090A0E6B0E0E8E5F7E102C005900D92AC3CC3
S11300A0B107D9F721E0ACECB0E001C01D92AF3448
S11300B0B207E1F70E94CF030C94AA0B0C94000042
S11300C0EF920F93CF93DF93E5EDF0E0C2E0C483AA
S11300D0D3E0D28389E390E0918380839683858300
S11300E0CF010E94D205EDEDF0E083E390E0978329
S11300F0868386E390E091838083C087D18784E000
S1130100828785E08387128281E08383C483CF0161
S11301100E94FE03E12C00E020E040E066E080E87D
S113012095E20E94050821E044E060E180E00E943D
S1130130CA0747E060E080E390E00E946F0744E074
S113014060E086E390E00E946F074DED50E065EDBE
S113015070E08BEE90E00E94D2014DED50E065ED31
S113016070E088E291E00E948102DF91CF910F91CB
S1130170EF9008958DED90E00E94EC048093EA00E6
S11301800895CF938091CE00813079F58091CF008E
S1130190882319F08130B9F028C085ED90E00E94E1
S11301A0CC0642E061E085ED90E00E94D00667E86D
S11301B070E085ED90E00E94B7068091CF008F5FDC
S11301C08093CF0012C00E945A08C82F40E064E018
S11301D086E390E00E94A1078C2F0E94F50741E07E
S11301E064E086E390E00E94A107CF91089541E086
S11301F061E085ED90E00E94D00660E670E085ED58
S113020090E00E94B7062FE986E891E021508040F3
S11302109040E1F700C0000085ED90E00E94CC061C
S113022088E090E00E941007873321F481E08093F6
S1130230DC0008951092DC0008958091CD0088239D
S113024019F0813019F1089585ED90E00E94CC06F3
S113025046E060E085ED90E00E94D0066FE670E035
S113026085ED90E00E94B70640E061E085ED90E006
S11302700E94D00665E770E085ED90E00E94B70625
S11302808091CD008F5F8093CD0008958BEE90E038
S11302900E94FD01882329F082E08093DC00109203
S11302A0CD0008958091CC00882319F0813079F134
S11302B0089585ED90E00E94CC0640E060E085ED75
S11302C090E00E94D00665E870E085ED90E00E9421
S11302D0B70640E061E085ED90E00E94D00665E954
S11302E070E085ED90E00E94B70640E062E085EDA5
S11302F090E00E94D00663EA70E085ED90E00E94F1
S1130300B7068091CC008F5F8093CC0008958091D4
S1130310EA008823C1F08091E900823351F08333ED
S113032069F0813381F484E08093DC001092CC0086
S113033008951092DC001092CC00089581E080931F
S1130340DC001092CC0008958091DC008130A9F08B
S113035028F08230A9F08430B1F0089588E291E069
S11303600E945C038823E9F081E08093DC0067E36A
S113037088E090E00E94080708950E941D010895F6
S11303800E945201089581E08093CE008091E9009B
S11303908A3239F482E08093DC001092CE0010920D
S11303A0CF000895FC0110A252A341A374A363A338
S11303B00895CF93DF93EC010E94CC0645E061E001
S11303C0CE010E94D0066DEA70E0CE010E94B7060D
S11303D08091D0008F5F8093D0004CE061E0CE012B
S11303E00E94D0064091D00050E060E070E0CE0161
S11303F00E94E206DF91CF9108950F931F93CF934C
S11304008C018091D10081110CC0B801605F7F4FD5
S113041080E090E00E9417078091D1008F5F809365
S1130420D100D8019196ED91FC919297C585C13088
S113043009F061C084858A32F1F490968C9190978A
S1130440815018161CF490968C9302C0F80110A2E7
S1130450D80190964C91909762E093968D919C91DF
S113046094970E94D00660E2F80183A194A10E94AF
S11304700B06C0E041C0833201F5D80190968C91FF
S1130480F801E80FF11D87FDFA951082B801605F4D
S11304907F4FC8010E946C0B892B19F4F80110A23C
S11304A02BC0D80190961C92909793968D919C9115
S11304B094970E94D901C0E01FC0F80140A1E40F45
S11304C0F11D47FDFA95808362E0D80193968D91E2
S11304D09C9194970E94D0066AE2F80183A194A1AA
S11304E00E940B06D80190968C9190978F5F9096FE
S11304F08C93C0E001C0C0E08C2FCF911F910F916D
S11305000895FC0112A211A210A254A343A376A33E
S113051065A308950F931F93CF93DC019396ED91F8
S1130520FC919497C585C13009F051C08C01848534
S11305308A3209F050C0FD0181A18150181614F4CB
S113054081A302C091961C92F80141A161E085A1AA
S113055096A10E94D00660E2D80195968D919C9157
S113056096970E940B06D8019396ED91FC9194976F
S11305708485833261F4F80181A18F5FE80FF11D56
S113058087FDFA951082D80191961C9227C08A3271
S113059001F1F80141A1E40FF11D47FDFA958083B3
S11305A061E0D80195968D919C9196970E94D00612
S11305B06AE2F80185A196A10E940B06D8019196E2
S11305C08C9191978F5F91968C93C0E007C0C0E0A7
S11305D005C0C0E003C08332E1F6CDCF8C2FCF91AC
S11305E01F910F9108950F931F93CF93DC0193965E
S11305F0ED91FC919497C585C13009F051C08C01EF
S113060084858A3209F050C0FD0182A181501816F8
S113061014F482A302C092961C92F80142A163E0F2
S113062085A196A10E94D00660E2D80195968D918D
S11306309C9196970E940B06D8019396ED91FC919C
S113064094978485833261F4F80182A18F5FE80F67
S1130650F11D87FDFA95108AD80192961C9227C045
S11306608A3201F1F80142A1E40FF11D47FDFA9528
S1130670808B63E0D80195968D919C9196970E940A
S1130680D0066AE2F80185A196A10E940B06D80162
S113069092968C9192978F5F92968C93C0E007C04C
S11306A0C0E005C0C0E003C08332E1F6CDCF8C2F9B
S11306B0CF911F910F9108950F931F93CF93DF93C1
S11306C08C01FC01C0A1C13059F128F0C23091F174
S11306D0C330D1F15DC0FC0185A196A10E94CC0676
S11306E043E060E0F80185A196A10E94D00663EB87
S11306F070E0F80185A196A10E94B70643E062E08C
S1130700F80185A196A10E94D0066EEB70E0F80175
S113071085A196A10E94B70681E0F80180A339C0A3
S11307200E948A02C82F8823A1F182E0F80180A3E5
S1130730C0E02FC00E94F302C82F882351F183E048
S1130740F80180A3C0E025C0EC016096BC01CE0195
S11307500E946C0B892B59F4BE0180E090E00E944A
S113076044071092D100F80110A2C1E012C0F801B0
S113077010A285A196A10E94D901FFE926E881E093
S1130780F15020408040E1F700C00000C0E001C00B
S1130790C0E08C2FDF91CF911F910F9108950E949B
S11307A060000E94EF08EE24E39401E010E020E0F2
S11307B030E040E050E0BA0184EA91E00E949E08F3
S11307C002E310E020E030E040E050E0BA0181ECC8
S11307D090E00E949E08E12C01E010E020E030E06F
S11307E040E050E0BA018AEB90E00E949E080E942B
S11307F0F7000E9435090E940B09FDCFCF93DF93C8
S1130800EC014A8160E0888199810E946F074B81E5
S113081060E0888199810E946F074C8160E0888143
S113082099810E946F07488562E08E819F810E94B2
S11308306F07498562E08E819F810E946F074A8518
S113084062E08E819F810E946F074B8562E08E81FA
S11308509F810E946F07DF91CF9108951F93CF93DB
S1130860DF93EC0140E06A81888199810E94A107AD
S113087068858E819F810E94BF07811102C012E3A7
S113088001C01AE269858E819F810E94BF07811190
S113089001C014E36A858E819F810E94BF07811184
S11308A001C016E36B858E819F810E94BF07811171
S11308B001C018E341E06A81888199810E94A107FF
S11308C040E06B81888199810E94A10768858E81AF
S11308D09F810E94BF07811101C01AE369858E813F
S11308E09F810E94BF07811101C01CE36A858E812C
S11308F09F810E94BF07811101C01EE36B858E8119
S11309009F810E94BF07811101C010E441E06B8107
S1130910888199810E94A10740E06C818881998136
S11309200E94A10768858E819F810E94BF07811163
S113093001C012E469858E819F810E94BF078111E5
S113094001C014E46A858E819F810E94BF078823B9
S1130950B9F16B858E819F810E94BF07882301F1C5
S113096041E06C81888199810E94A1071A3239F48F
S11309708AE28093D3008093D20080E029C08091E2
S1130980D300811309C09091D200891729F08C8774
S11309908093D20081E01CC01093D30080E018C083
S11309A041E06C81888199810E94A10718E4E7CF16
S11309B041E06C81888199810E94A10716E4DFCF10
S11309C06B858E819F810E94BF07882349F3F0CFF6
S11309D0DF91CF911F910895CF93DF93EC010E9493
S11309E02E048D87EC854E2F50E0FA01F297E73103
S11309F0F10538F5E65DFF4F0C94660B91E39C8797
S1130A0020C094E39C871DC097E39C871AC09AE298
S1130A109C8717C092E39C8714C095E39C8711C000
S1130A2098E39C870EC090E39C870BC093E39C875C
S1130A3008C096E39C8705C099E39C8702C093E2B3
S1130A409C87DF91CF910895FC01A081B18112961A
S1130A503C91129781E090E0AC01028002C0440F07
S1130A60551F0A94E2F7242F2095232312962C93E2
S1130A70A081B18112963C911297AC01038002C00F
S1130A80440F551F0A94E2F7242F2095232312962E
S1130A902C93A081B18112964C9112979C010480F1
S1130AA002C0220F331F0A94E2F7242B12962C93D0
S1130AB0A9EFB0E01197F1F700C00000A581B6815D
S1130AC012962C9112972F7012962C93A581B681B1
S1130AD012962C911297362F307F232B12962C933B
S1130AE0A9EFB0E01197F1F700C00000A081B18137
S1130AF012963C911297AC01048002C0440F551F1A
S1130B000A94E2F7242F2095232312962C93A9EF1D
S1130B10B0E01197F1F700C00000A081B1811296F6
S1130B204C9112979C01048002C0220F331F0A9437
S1130B30E2F7242B12962C93A9EFB0E01197F1F76A
S1130B4000C00000A581B68112962C9112972F70D7
S1130B5012962C93A581B68112962C91129730E1AE
S1130B60639FB0011124622B12966C93A9EFB0E03D
S1130B701197F1F700C00000A081B18112962C9169
S1130B801297048002C0880F991F0A94E2F7809597
S1130B90822312968C9389EF90E00197F1F700C0BD
S1130BA000000895CF93DF93EC01E881F98131814E
S1130BB081E090E0BC010B8002C0660F771F0A94AD
S1130BC0E2F7AC010A8002C0440F551F0A94E2F711
S1130BD0262F242B232B0C8002C0880F991F0A94E4
S1130BE0E2F7822B8183ED81FE818181806F818395
S1130BF062E0CE010E94240568E2CE010E94240531
S1130C006CE0CE010E94240561E0CE010E9424051F
S1130C10DF91CF910895FC01A081B18112964C918E
S1130C20129781E090E09C01028002C0220F331FE2
S1130C300A94E2F7242B12962C93A081B181129688
S1130C403C911297AC01038002C0440F551F0A94D3
S1130C50E2F7242F2095232312962C93A081B181AF
S1130C6012964C9112979C01048002C0220F331FEC
S1130C700A94E2F7242B12962C93A9EFB0E0119773
S1130C80F1F700C00000A581B68112962C9112974D
S1130C902F7012962C93A581B68112962C911297DF
S1130CA0362F307F232B12962C93A9EFB0E01197A7
S1130CB0F1F700C00000A081B18112963C91129717
S1130CC0AC01048002C0440F551F0A94E2F7242F9C
S1130CD02095232312962C93A9EFB0E01197F1F7F6
S1130CE000C00000A081B18112964C9112979C0122
S1130CF0048002C0220F331F0A94E2F7242B1296B9
S1130D002C93A9EFB0E01197F1F700C00000A58182
S1130D10B68112962C9112972F7012962C93A5815E
S1130D20B68112962C91129730E1639FB001112481
S1130D30622B12966C93A9EFB0E01197F1F700C003
S1130D400000A081B18112962C911297048002C0F8
S1130D50880F991F0A94E2F78095822312968C9348
S1130D6089EF90E00197F1F700C0000008950F9318
S1130D701F93CF93DF93EB016881662341F08C01CD
S1130D802196C8010E940B0669916111FACFDF9187
S1130D90CF911F910F91089561E00E942405089559
S1130DA0613031F050F0623029F0633029F0089559
S1130DB0405C03C0405F01C0405B642F60680E94D8
S1130DC0240508950F931F93CF93DF93CDB7DEB718
S1130DD061970FB6F894DEBF0FBECDBF8C01DB0167
S1130DE0CA014AE0BE016F5F7F4F0E94750BBE01CE
S1130DF06F5F7F4FC8010E94B70661960FB6F894E3
S1130E00DEBF0FBECDBFDF91CF911F910F9108952B
S1130E10E199FECF9FBB8EBB6DBBE29AE19A089528
S1130E20E199FECF9FBB8EBBE09A8DB30895AF923C
S1130E30BF92CF92DF92EF92FF920F931F93CF93C3
S1130E40DF936C015B017B01C0E0D0E007C0C80107
S1130E500E941007F70181937F0121968E010C0DEA
S1130E601D1DC8010E9410078111F1CFCA0DDB1DA1
S1130E701882DF91CF911F910F91FF90EF90DF9037
S1130E80CF90BF90AF900895EF92FF920F931F936E
S1130E90CF93DF937C01FB016081662389F08F018E
S1130EA00F5F1F4FC0E0D0E0C7018C0F9D1F0E9451
S1130EB008072196F80161918F016111F5CF02C0F5
S1130EC0C0E0D0E060E0C7018C0F9D1F0E940807BE
S1130ED0DF91CF911F910F91FF90EF900895FC0146
S1130EE0613079F018F06230E1F00895218181E0F9
S1130EF090E002C0880F991F4A95E2F7822B818304
S1130F000895218181E090E002C0880F991F4A95DD
S1130F10E2F78095922F982391839281892382838B
S1130F200895218181E090E002C0880F991F4A95BD
S1130F30E2F7982F9095922391839281892B828353
S1130F400895442319F0413071F00895FC01428161
S1130F5021E030E002C0220F331F6A95E2F72095AA
S1130F60242322830895FC01428121E030E002C061
S1130F70220F331F6A95E2F7242B22830895FC0184
S1130F80208181E090E002C0880F991F6A95E2F702
S1130F9082230895FF920F931F93CF93DF93D82F4B
S1130FA0C62F142FF22E603169F445E060E086E329
S1130FB090E00E946F0747E060E086E390E00E94C3
S1130FC06F0706C046E060E086E390E00E946F078A
S1130FD08F2D8064182BD12BCD2BCDB90EB9DF9179
S1130FE0CF911F910F91FF9008958FB9779BFECFFA
S1130FF00895822B8064482B592B642B752B7FBD5D
S11310006EBD89B7806189BF0895EF920F931F93D6
S1131010CF93DF93C62FD42F122F4423D1F0BC01DA
S113102080E090E00E946B0A9B01AC010E945E0983
S11310309B01AC0160E074E284E799E40E94CA0970
S113104020E030E040E85FE30E945D090E943C0A32
S11310501BC0BC0180E090E00E946B0A20E030E0FD
S113106040E051E40E94F90A9B01AC0160E074E2A3
S113107084E799E40E94CA0920E030E040E85FE395
S11310800E945D090E943C0A69B9737070BD82E0D8
S11310908BB918611AB900680C2BCE2DCC0FCC0F6C
S11310A0CC0FC02BCD2BC0BDDF91CF911F910F91E1
S11310B0EF9008955F9B02C08CB108950895EF925C
S11310C0FF920F931F93CF93DF93C0E1D1E00F2ED4
S11310D0F8E2EF2EF1E0FF2EF02D8E01E881F98188
S11310E0309709F18A819B810097D1F48F818823FD
S11310F041F08E818F5F8E838C819D81009761F496
S113110012C009958E8181508E838C819D810097B8
S113111019F41982188207C0F8019383828303C0EB
S113112001979B838A832896CE15DF05B1F6DF915C
S1131130CF911F910F91FF90EF900895EF920F932D
S11311401F93DC018091100190911101892B49F0CA
S11311508091180190911901892BB9F082E090E0F7
S113116002C080E090E0FC01EE0FFF1FEE0FFF1FB6
S1131170EE0FFF1FE05FFE4FB183A08353834283D2
S1131180158304831682E78203C081E090E0EBCFED
S11311901F910F91EF900895FC01EE0FFF1FEE0FCA
S11311A0FF1FEE0FFF1FE05FFE4F20813181232BD5
S11311B021F481E08093D4000895880F991F880F4B
S11311C0991F880F991FFC01E05FFE4F1182108266
S11311D01382128215821482168280E0089580E0C0
S11311E090E00E94CC0881E090E00E94CC0882E06C
S11311F090E00E94CC081092D40021E040E050E03E
S113120060E070E088E090E00E94F90788EE93E0E7
S11312109BBD8ABD0895EF92FF920F931F93CF93C6
S1131220DF93C0E1D1E000E010E08F81882381F0FA
S11312308E81882369F0E881F98109958E81815036
S11312408E838C819D81892B19F4C8010E94CC085E
S11312500F5F1F4F28960330110539F7DF91CF91A7
S11312601F910F91FF90EF9008958FB780688FBF03
S113127008951F920F920FB60F9211242F933F934C
S11312804F935F936F937F938F939F93AF93BF938A
S1131290EF93FF930E945F08FF91EF91BF91AF918D
S11312A09F918F917F916F915F914F913F912F917A
S11312B00F900FBE0F901F9018955058BB27AA2768
S11312C00E9475090C94BF0A0E94B10A38F00E946A
S11312D0B80A20F039F49F3F19F426F40C94AE0AAE
S11312E00EF4E095E7FB0C94A80AE92F0E94D00ABB
S11312F058F3BA17620773078407950720F079F447
S1131300A6F50C94F20A0EF4E0950B2EBA2FA02D3C
S11313100B01B90190010C01CA01A0011124FF279E
S1131320591B99F0593F50F4503E68F11A16F04099
S1131330A22F232F342F4427585FF3CF4695379598
S11313402795A795F0405395C9F77EF41F16BA0B5D
S1131350620B730B840BBAF09150A1F0FF0FBB1F0B
S1131360661F771F881FC2F70EC0BA0F621F731F54
S1131370841F48F4879577956795B795F7959E3FB1
S113138008F0B0CF9395880F08F09927EE0F979542
S1131390879508950E94DE090C94BF0A0E94B80A3A
S11313A058F00E94B10A40F029F45F3F29F00C94F0
S11313B0A80A51110C94F30A0C94AE0A0E94D00AA4
S11313C068F39923B1F3552391F3951B550BBB2770
S11313D0AA2762177307840738F09F5F5F4F220FB5
S11313E0331F441FAA1FA9F335D00E2E3AF0E0E8AC
S11313F032D091505040E695001CCAF72BD0FE2FF6
S113140029D0660F771F881FBB1F26173707480789
S1131410AB07B0E809F0BB0B802DBF01FF27935841
S11314205F4F3AF09E3F510578F00C94A80A0C9453
S1131430F30A5F3FE4F3983ED4F386957795679576
S1131440B795F7959F5FC9F7880F911D9695879576
S113145097F90895E1E0660F771F881FBB1F621795
S113146073078407BA0720F0621B730B840BBA0B53
S1131470EE1F88F7E09508950E94D80A88F09F57D8
S113148098F0B92F9927B751B0F0E1F0660F771FA4
S1131490881F991F1AF0BA95C9F714C0B13091F09A
S11314A00E94F20AB1E008950C94F20A672F782F93
S11314B08827B85F39F0B93FCCF38695779567955F
S11314C0B395D9F73EF490958095709561957F4FCB
S11314D08F4F9F4F0895E89409C097FB3EF4909571
S11314E08095709561957F4F8F4F9F4F9923A9F0F9
S11314F0F92F96E9BB279395F69587957795679588
S1131500B795F111F8CFFAF4BB0F11F460FF1BC0CB
S11315106F5F7F4F8F4F9F4F16C0882311F096E95E
S113152011C0772321F09EE8872F762F05C066230C
S113153071F096E8862F70E060E02AF09A95660FC5
S1131540771F881FDAF7880F9695879597F908957E
S113155097F99F6780E870E060E008959FEF80EC62
S1131560089500240A941616170618060906089505
S113157000240A9412161306140605060895092E6B
S11315800394000C11F4882352F0BB0F40F4BF2BDA
S113159011F460FF04C06F5F7F4F8F4F9F4F08951A
S11315A057FD9058440F551F59F05F3F71F0479510
S11315B0880F97FB991F61F09F3F79F087950895F5
S11315C0121613061406551FF2CF4695F1DF08C014
S11315D0161617061806991FF1CF86957105610531
S11315E008940895E894BB2766277727CB0197F9D9
S11315F008950E940C0B0C94BF0A0E94B10A38F0A3
S11316000E94B80A20F0952311F00C94A80A0C94B7
S1131610AE0A11240C94F30A0E94D00A70F3959F29
S1131620C1F3950F50E0551F629FF001729FBB27D5
S1131630F00DB11D639FAA27F00DB11DAA1F649F71
S11316406627B00DA11D661F829F2227B00DA11D24
S1131650621F739FB00DA11D621F839FA00D611DAA
S1131660221F749F3327A00D611D231F849F600DCB
S1131670211D822F762F6A2F11249F5750409AF0F4
S1131680F1F088234AF0EE0FFF1FBB1F661F771F80
S1131690881F91505040A9F79E3F510580F00C944B
S11316A0A80A0C94F30A5F3FE4F3983ED4F38695BA
S11316B077956795B795F795E7959F5FC1F7FE2BEB
S11316C0880F911D9695879597F90895EE0FFF1F42
S11316D00590F491E02D0994FB01DC018D910190BA
S11316E080190110D9F3990B0895BB274A3031F4BE
S11316F0992322F4BDE2909581959F4F0C94810B20
S1131700BB27FB015527AA27880F991FAA1FA417D7
S113171010F0A41B83955051B9F7A05DAA3308F0CB
S1131720A95DA193009779F7B111B1931192CB01FF
S11317300C949A0BDC01FC01672F71917723E1F77C
S1131740329704C07C916D9370836291AE17BF078A
S10B1750C8F30895F894FFCFDB
S113175857656C636F6D6520546F20524F56002097
S1131768524F562000202020456E74657220506127
S11317787373202000312E52656D6F7465204163A8
S11317886365737300322E6368616E676520506108
S1131798737300332E6C6F67206F75740057726F04
S11317A86E6700456E746572205061737300436FF1
S10F17B86E6669726D205061737300004E
S9030000FC
